{
  "contractName": "SmartLeaseContract",
  "abi": [
    {
      "inputs": [],
      "stateMutability": "nonpayable",
      "type": "constructor"
    },
    {
      "anonymous": false,
      "inputs": [
        {
          "indexed": true,
          "internalType": "address",
          "name": "owner",
          "type": "address"
        },
        {
          "indexed": true,
          "internalType": "address",
          "name": "spender",
          "type": "address"
        },
        {
          "indexed": false,
          "internalType": "uint256",
          "name": "value",
          "type": "uint256"
        }
      ],
      "name": "Approval",
      "type": "event"
    },
    {
      "anonymous": false,
      "inputs": [
        {
          "indexed": false,
          "internalType": "uint256",
          "name": "timestamp",
          "type": "uint256"
        },
        {
          "indexed": false,
          "internalType": "address",
          "name": "tenantAddress",
          "type": "address"
        },
        {
          "indexed": false,
          "internalType": "uint256",
          "name": "amount",
          "type": "uint256"
        }
      ],
      "name": "DepositPayed",
      "type": "event"
    },
    {
      "anonymous": false,
      "inputs": [
        {
          "indexed": false,
          "internalType": "uint256",
          "name": "timestamp",
          "type": "uint256"
        },
        {
          "indexed": false,
          "internalType": "address",
          "name": "tenantAddress",
          "type": "address"
        },
        {
          "indexed": false,
          "internalType": "uint256",
          "name": "amount",
          "type": "uint256"
        }
      ],
      "name": "RentPayed",
      "type": "event"
    },
    {
      "anonymous": false,
      "inputs": [
        {
          "indexed": false,
          "internalType": "uint256",
          "name": "timestamp",
          "type": "uint256"
        },
        {
          "indexed": false,
          "internalType": "address",
          "name": "tenantAddress",
          "type": "address"
        },
        {
          "indexed": false,
          "internalType": "uint256",
          "name": "rentAmount",
          "type": "uint256"
        },
        {
          "indexed": false,
          "internalType": "uint256",
          "name": "depositAmount",
          "type": "uint256"
        }
      ],
      "name": "TenantAssigned",
      "type": "event"
    },
    {
      "anonymous": false,
      "inputs": [
        {
          "indexed": false,
          "internalType": "uint256",
          "name": "timestamp",
          "type": "uint256"
        },
        {
          "indexed": false,
          "internalType": "address",
          "name": "tenantAddress",
          "type": "address"
        }
      ],
      "name": "TenantSigned",
      "type": "event"
    },
    {
      "anonymous": false,
      "inputs": [
        {
          "indexed": true,
          "internalType": "address",
          "name": "from",
          "type": "address"
        },
        {
          "indexed": true,
          "internalType": "address",
          "name": "to",
          "type": "address"
        },
        {
          "indexed": false,
          "internalType": "uint256",
          "name": "value",
          "type": "uint256"
        }
      ],
      "name": "Transfer",
      "type": "event"
    },
    {
      "anonymous": false,
      "inputs": [
        {
          "indexed": false,
          "internalType": "uint256",
          "name": "timestamp",
          "type": "uint256"
        },
        {
          "indexed": false,
          "internalType": "string",
          "name": "ipfsHash",
          "type": "string"
        }
      ],
      "name": "WrittenContractProposed",
      "type": "event"
    },
    {
      "inputs": [
        {
          "internalType": "address",
          "name": "",
          "type": "address"
        }
      ],
      "name": "Landlords",
      "outputs": [
        {
          "internalType": "bool",
          "name": "",
          "type": "bool"
        }
      ],
      "stateMutability": "view",
      "type": "function",
      "constant": true
    },
    {
      "inputs": [],
      "name": "LeaseAgreementIpfsHash",
      "outputs": [
        {
          "internalType": "string",
          "name": "",
          "type": "string"
        }
      ],
      "stateMutability": "view",
      "type": "function",
      "constant": true
    },
    {
      "inputs": [
        {
          "internalType": "address",
          "name": "",
          "type": "address"
        }
      ],
      "name": "addressToTenant",
      "outputs": [
        {
          "internalType": "address",
          "name": "owner",
          "type": "address"
        },
        {
          "internalType": "string",
          "name": "house_address",
          "type": "string"
        },
        {
          "internalType": "uint256",
          "name": "rentAmount",
          "type": "uint256"
        },
        {
          "internalType": "uint256",
          "name": "depositAmount",
          "type": "uint256"
        },
        {
          "internalType": "uint256",
          "name": "lateRentFee",
          "type": "uint256"
        },
        {
          "internalType": "uint256",
          "name": "lastBillPaymentDate",
          "type": "uint256"
        },
        {
          "internalType": "uint256",
          "name": "nextBillingDate",
          "type": "uint256"
        },
        {
          "internalType": "bool",
          "name": "hasSignedLease",
          "type": "bool"
        },
        {
          "internalType": "bool",
          "name": "hasPaidDeposit",
          "type": "bool"
        },
        {
          "internalType": "bool",
          "name": "latePayment",
          "type": "bool"
        },
        {
          "internalType": "bool",
          "name": "registered",
          "type": "bool"
        },
        {
          "internalType": "bool",
          "name": "latePaymentChecked",
          "type": "bool"
        }
      ],
      "stateMutability": "view",
      "type": "function",
      "constant": true
    },
    {
      "inputs": [
        {
          "internalType": "address",
          "name": "owner",
          "type": "address"
        },
        {
          "internalType": "address",
          "name": "spender",
          "type": "address"
        }
      ],
      "name": "allowance",
      "outputs": [
        {
          "internalType": "uint256",
          "name": "",
          "type": "uint256"
        }
      ],
      "stateMutability": "view",
      "type": "function",
      "constant": true
    },
    {
      "inputs": [
        {
          "internalType": "address",
          "name": "spender",
          "type": "address"
        },
        {
          "internalType": "uint256",
          "name": "amount",
          "type": "uint256"
        }
      ],
      "name": "approve",
      "outputs": [
        {
          "internalType": "bool",
          "name": "",
          "type": "bool"
        }
      ],
      "stateMutability": "nonpayable",
      "type": "function"
    },
    {
      "inputs": [
        {
          "internalType": "address",
          "name": "account",
          "type": "address"
        }
      ],
      "name": "balanceOf",
      "outputs": [
        {
          "internalType": "uint256",
          "name": "",
          "type": "uint256"
        }
      ],
      "stateMutability": "view",
      "type": "function",
      "constant": true
    },
    {
      "inputs": [
        {
          "internalType": "address",
          "name": "spender",
          "type": "address"
        },
        {
          "internalType": "uint256",
          "name": "subtractedValue",
          "type": "uint256"
        }
      ],
      "name": "decreaseAllowance",
      "outputs": [
        {
          "internalType": "bool",
          "name": "",
          "type": "bool"
        }
      ],
      "stateMutability": "nonpayable",
      "type": "function"
    },
    {
      "inputs": [],
      "name": "deployer",
      "outputs": [
        {
          "internalType": "address",
          "name": "",
          "type": "address"
        }
      ],
      "stateMutability": "view",
      "type": "function",
      "constant": true
    },
    {
      "inputs": [
        {
          "internalType": "address",
          "name": "spender",
          "type": "address"
        },
        {
          "internalType": "uint256",
          "name": "addedValue",
          "type": "uint256"
        }
      ],
      "name": "increaseAllowance",
      "outputs": [
        {
          "internalType": "bool",
          "name": "",
          "type": "bool"
        }
      ],
      "stateMutability": "nonpayable",
      "type": "function"
    },
    {
      "inputs": [],
      "name": "landlordAddress",
      "outputs": [
        {
          "internalType": "address",
          "name": "",
          "type": "address"
        }
      ],
      "stateMutability": "view",
      "type": "function",
      "constant": true
    },
    {
      "inputs": [],
      "name": "name",
      "outputs": [
        {
          "internalType": "string",
          "name": "",
          "type": "string"
        }
      ],
      "stateMutability": "view",
      "type": "function",
      "constant": true
    },
    {
      "inputs": [],
      "name": "symbol",
      "outputs": [
        {
          "internalType": "string",
          "name": "",
          "type": "string"
        }
      ],
      "stateMutability": "view",
      "type": "function",
      "constant": true
    },
    {
      "inputs": [],
      "name": "tenantOccupancy",
      "outputs": [
        {
          "internalType": "uint8",
          "name": "",
          "type": "uint8"
        }
      ],
      "stateMutability": "view",
      "type": "function",
      "constant": true
    },
    {
      "inputs": [
        {
          "internalType": "uint256",
          "name": "",
          "type": "uint256"
        }
      ],
      "name": "tenants",
      "outputs": [
        {
          "internalType": "address",
          "name": "owner",
          "type": "address"
        },
        {
          "internalType": "string",
          "name": "house_address",
          "type": "string"
        },
        {
          "internalType": "uint256",
          "name": "rentAmount",
          "type": "uint256"
        },
        {
          "internalType": "uint256",
          "name": "depositAmount",
          "type": "uint256"
        },
        {
          "internalType": "uint256",
          "name": "lateRentFee",
          "type": "uint256"
        },
        {
          "internalType": "uint256",
          "name": "lastBillPaymentDate",
          "type": "uint256"
        },
        {
          "internalType": "uint256",
          "name": "nextBillingDate",
          "type": "uint256"
        },
        {
          "internalType": "bool",
          "name": "hasSignedLease",
          "type": "bool"
        },
        {
          "internalType": "bool",
          "name": "hasPaidDeposit",
          "type": "bool"
        },
        {
          "internalType": "bool",
          "name": "latePayment",
          "type": "bool"
        },
        {
          "internalType": "bool",
          "name": "registered",
          "type": "bool"
        },
        {
          "internalType": "bool",
          "name": "latePaymentChecked",
          "type": "bool"
        }
      ],
      "stateMutability": "view",
      "type": "function",
      "constant": true
    },
    {
      "inputs": [],
      "name": "totalSupply",
      "outputs": [
        {
          "internalType": "uint256",
          "name": "",
          "type": "uint256"
        }
      ],
      "stateMutability": "view",
      "type": "function",
      "constant": true
    },
    {
      "inputs": [
        {
          "internalType": "address",
          "name": "recipient",
          "type": "address"
        },
        {
          "internalType": "uint256",
          "name": "amount",
          "type": "uint256"
        }
      ],
      "name": "transfer",
      "outputs": [
        {
          "internalType": "bool",
          "name": "",
          "type": "bool"
        }
      ],
      "stateMutability": "nonpayable",
      "type": "function"
    },
    {
      "inputs": [
        {
          "internalType": "address",
          "name": "sender",
          "type": "address"
        },
        {
          "internalType": "address",
          "name": "recipient",
          "type": "address"
        },
        {
          "internalType": "uint256",
          "name": "amount",
          "type": "uint256"
        }
      ],
      "name": "transferFrom",
      "outputs": [
        {
          "internalType": "bool",
          "name": "",
          "type": "bool"
        }
      ],
      "stateMutability": "nonpayable",
      "type": "function"
    },
    {
      "inputs": [],
      "name": "decimals",
      "outputs": [
        {
          "internalType": "uint8",
          "name": "",
          "type": "uint8"
        }
      ],
      "stateMutability": "view",
      "type": "function",
      "constant": true
    },
    {
      "inputs": [
        {
          "internalType": "address",
          "name": "_landlord",
          "type": "address"
        }
      ],
      "name": "addLandlord",
      "outputs": [],
      "stateMutability": "nonpayable",
      "type": "function"
    },
    {
      "inputs": [
        {
          "internalType": "string",
          "name": "_LeaseAgreementIpfsHash",
          "type": "string"
        }
      ],
      "name": "proposeLeaseAgreement",
      "outputs": [],
      "stateMutability": "nonpayable",
      "type": "function"
    },
    {
      "inputs": [],
      "name": "displayhashvalue",
      "outputs": [
        {
          "internalType": "string",
          "name": "",
          "type": "string"
        }
      ],
      "stateMutability": "view",
      "type": "function",
      "constant": true
    },
    {
      "inputs": [
        {
          "internalType": "address",
          "name": "tenant_addr",
          "type": "address"
        }
      ],
      "name": "displayHouseDetails",
      "outputs": [
        {
          "components": [
            {
              "internalType": "address",
              "name": "owner",
              "type": "address"
            },
            {
              "internalType": "string",
              "name": "house_address",
              "type": "string"
            },
            {
              "internalType": "uint256",
              "name": "rentAmount",
              "type": "uint256"
            },
            {
              "internalType": "uint256",
              "name": "depositAmount",
              "type": "uint256"
            },
            {
              "internalType": "uint256",
              "name": "lateRentFee",
              "type": "uint256"
            },
            {
              "internalType": "uint256",
              "name": "lastBillPaymentDate",
              "type": "uint256"
            },
            {
              "internalType": "uint256",
              "name": "nextBillingDate",
              "type": "uint256"
            },
            {
              "internalType": "bool",
              "name": "hasSignedLease",
              "type": "bool"
            },
            {
              "internalType": "bool",
              "name": "hasPaidDeposit",
              "type": "bool"
            },
            {
              "internalType": "bool",
              "name": "latePayment",
              "type": "bool"
            },
            {
              "internalType": "bool",
              "name": "registered",
              "type": "bool"
            },
            {
              "internalType": "bool",
              "name": "latePaymentChecked",
              "type": "bool"
            }
          ],
          "internalType": "struct SmartLeaseContract.Tenant_Details",
          "name": "",
          "type": "tuple"
        }
      ],
      "stateMutability": "view",
      "type": "function",
      "constant": true
    },
    {
      "inputs": [
        {
          "internalType": "address",
          "name": "_tenantAddress",
          "type": "address"
        },
        {
          "internalType": "string",
          "name": "house_address",
          "type": "string"
        },
        {
          "internalType": "uint256",
          "name": "_rentAmount",
          "type": "uint256"
        },
        {
          "internalType": "uint256",
          "name": "_depositAmount",
          "type": "uint256"
        },
        {
          "internalType": "uint256",
          "name": "lateRentFee",
          "type": "uint256"
        }
      ],
      "name": "registerTenant",
      "outputs": [],
      "stateMutability": "nonpayable",
      "type": "function"
    },
    {
      "inputs": [],
      "name": "signContract",
      "outputs": [],
      "stateMutability": "nonpayable",
      "type": "function"
    },
    {
      "inputs": [
        {
          "internalType": "uint256",
          "name": "_Amount",
          "type": "uint256"
        }
      ],
      "name": "payDeposit",
      "outputs": [],
      "stateMutability": "payable",
      "type": "function",
      "payable": true
    },
    {
      "inputs": [
        {
          "internalType": "uint256",
          "name": "_Amount",
          "type": "uint256"
        }
      ],
      "name": "payRent",
      "outputs": [],
      "stateMutability": "payable",
      "type": "function",
      "payable": true
    },
    {
      "inputs": [],
      "name": "CheckLatePayment",
      "outputs": [],
      "stateMutability": "nonpayable",
      "type": "function"
    },
    {
      "inputs": [
        {
          "internalType": "address",
          "name": "_tenantAddress",
          "type": "address"
        }
      ],
      "name": "settleTenant",
      "outputs": [],
      "stateMutability": "nonpayable",
      "type": "function"
    }
  ],
  "bytecode": "0x60806040526000600b60006101000a81548160ff021916908360ff1602179055503480156200002d57600080fd5b506040518060400160405280600681526020017f52656e74495400000000000000000000000000000000000000000000000000008152506040518060400160405280600381526020017f52495400000000000000000000000000000000000000000000000000000000008152508160039080519060200190620000b2929190620002e0565b508060049080519060200190620000cb929190620002e0565b50505033600960006101000a81548173ffffffffffffffffffffffffffffffffffffffff021916908373ffffffffffffffffffffffffffffffffffffffff1602179055506200014e33620001246200015460201b60201c565b600a6200013291906200052a565b629896806200014291906200057b565b6200015d60201b60201c565b6200074f565b60006002905090565b600073ffffffffffffffffffffffffffffffffffffffff168273ffffffffffffffffffffffffffffffffffffffff161415620001d0576040517f08c379a0000000000000000000000000000000000000000000000000000000008152600401620001c7906200063d565b60405180910390fd5b620001e460008383620002d660201b60201c565b8060026000828254620001f891906200065f565b92505081905550806000808473ffffffffffffffffffffffffffffffffffffffff1673ffffffffffffffffffffffffffffffffffffffff16815260200190815260200160002060008282546200024f91906200065f565b925050819055508173ffffffffffffffffffffffffffffffffffffffff16600073ffffffffffffffffffffffffffffffffffffffff167fddf252ad1be2c89b69c2b068fc378daa952ba7f163c4a11628f55a4df523b3ef83604051620002b69190620006cd565b60405180910390a3620002d260008383620002db60201b60201c565b5050565b505050565b505050565b828054620002ee9062000719565b90600052602060002090601f0160209004810192826200031257600085556200035e565b82601f106200032d57805160ff19168380011785556200035e565b828001600101855582156200035e579182015b828111156200035d57825182559160200191906001019062000340565b5b5090506200036d919062000371565b5090565b5b808211156200038c57600081600090555060010162000372565b5090565b7f4e487b7100000000000000000000000000000000000000000000000000000000600052601160045260246000fd5b60008160011c9050919050565b6000808291508390505b60018511156200041e57808604811115620003f657620003f562000390565b5b6001851615620004065780820291505b80810290506200041685620003bf565b9450620003d6565b94509492505050565b6000826200043957600190506200050c565b816200044957600090506200050c565b81600181146200046257600281146200046d57620004a3565b60019150506200050c565b60ff84111562000482576200048162000390565b5b8360020a9150848211156200049c576200049b62000390565b5b506200050c565b5060208310610133831016604e8410600b8410161715620004dd5782820a905083811115620004d757620004d662000390565b5b6200050c565b620004ec8484846001620003cc565b9250905081840481111562000506576200050562000390565b5b81810290505b9392505050565b6000819050919050565b600060ff82169050919050565b6000620005378262000513565b915062000544836200051d565b9250620005737fffffffffffffffffffffffffffffffffffffffffffffffffffffffffffffffff848462000427565b905092915050565b6000620005888262000513565b9150620005958362000513565b9250817fffffffffffffffffffffffffffffffffffffffffffffffffffffffffffffffff0483118215151615620005d157620005d062000390565b5b828202905092915050565b600082825260208201905092915050565b7f45524332303a206d696e7420746f20746865207a65726f206164647265737300600082015250565b600062000625601f83620005dc565b91506200063282620005ed565b602082019050919050565b60006020820190508181036000830152620006588162000616565b9050919050565b60006200066c8262000513565b9150620006798362000513565b9250827fffffffffffffffffffffffffffffffffffffffffffffffffffffffffffffffff03821115620006b157620006b062000390565b5b828201905092915050565b620006c78162000513565b82525050565b6000602082019050620006e46000830184620006bc565b92915050565b7f4e487b7100000000000000000000000000000000000000000000000000000000600052602260045260246000fd5b600060028204905060018216806200073257607f821691505b60208210811415620007495762000748620006ea565b5b50919050565b614bc5806200075f6000396000f3fe6080604052600436106101b75760003560e01c806398eeb335116100ec578063d5f394881161008a578063dd62ed3e11610064578063dd62ed3e1461061e578063e50138ae1461065b578063f8be6fb314610698578063fb5e2928146106d5576101b7565b8063d5f39488146105ac578063d8610e51146105d7578063d9e8843f14610602576101b7565b8063b6dcc4ff116100c6578063b6dcc4ff146104f9578063b8b4f1a014610522578063bd2ba85d14610539578063c1b9930914610581576101b7565b806398eeb33514610456578063a457c2d71461047f578063a9059cbb146104bc576101b7565b806323b872dd116101595780633950935111610133578063395093511461039a5780633d0bb7e6146103d757806370a08231146103ee57806395d89b411461042b576101b7565b806323b872dd1461031657806328cd3f1814610353578063313ce5671461036f576101b7565b8063095ea7b311610195578063095ea7b31461023b5780631764e8ee1461027857806318160ddd146102c05780631b2ef354146102eb576101b7565b806301c9a259146101bc57806302d8db08146101e557806306fdde0314610210575b600080fd5b3480156101c857600080fd5b506101e360048036038101906101de91906135a1565b6106fe565b005b3480156101f157600080fd5b506101fa6107f6565b60405161020791906135dd565b60405180910390f35b34801561021c57600080fd5b5061022561081c565b6040516102329190613691565b60405180910390f35b34801561024757600080fd5b50610262600480360381019061025d91906136e9565b6108ae565b60405161026f9190613744565b60405180910390f35b34801561028457600080fd5b5061029f600480360381019061029a91906135a1565b6108cc565b6040516102b79c9b9a9998979695949392919061376e565b60405180910390f35b3480156102cc57600080fd5b506102d5610a15565b6040516102e2919061382f565b60405180910390f35b3480156102f757600080fd5b50610300610a1f565b60405161030d9190613866565b60405180910390f35b34801561032257600080fd5b5061033d60048036038101906103389190613881565b610a32565b60405161034a9190613744565b60405180910390f35b61036d600480360381019061036891906138d4565b610b2a565b005b34801561037b57600080fd5b50610384610ed9565b6040516103919190613866565b60405180910390f35b3480156103a657600080fd5b506103c160048036038101906103bc91906136e9565b610ee2565b6040516103ce9190613744565b60405180910390f35b3480156103e357600080fd5b506103ec610f8e565b005b3480156103fa57600080fd5b50610415600480360381019061041091906135a1565b61120e565b604051610422919061382f565b60405180910390f35b34801561043757600080fd5b50610440611256565b60405161044d9190613691565b60405180910390f35b34801561046257600080fd5b5061047d60048036038101906104789190613966565b6112e8565b005b34801561048b57600080fd5b506104a660048036038101906104a191906136e9565b6113cc565b6040516104b39190613744565b60405180910390f35b3480156104c857600080fd5b506104e360048036038101906104de91906136e9565b6114b7565b6040516104f09190613744565b60405180910390f35b34801561050557600080fd5b50610520600480360381019061051b91906139b3565b6114d5565b005b34801561052e57600080fd5b50610537611ca9565b005b34801561054557600080fd5b50610560600480360381019061055b91906138d4565b611f4e565b6040516105789c9b9a9998979695949392919061376e565b60405180910390f35b34801561058d57600080fd5b506105966120a7565b6040516105a39190613691565b60405180910390f35b3480156105b857600080fd5b506105c1612139565b6040516105ce91906135dd565b60405180910390f35b3480156105e357600080fd5b506105ec61215f565b6040516105f99190613691565b60405180910390f35b61061c600480360381019061061791906138d4565b6121ed565b005b34801561062a57600080fd5b5061064560048036038101906106409190613a4d565b612875565b604051610652919061382f565b60405180910390f35b34801561066757600080fd5b50610682600480360381019061067d91906135a1565b6128fc565b60405161068f9190613744565b60405180910390f35b3480156106a457600080fd5b506106bf60048036038101906106ba91906135a1565b61291c565b6040516106cc9190613c08565b60405180910390f35b3480156106e157600080fd5b506106fc60048036038101906106f791906135a1565b612b17565b005b600960009054906101000a900473ffffffffffffffffffffffffffffffffffffffff1673ffffffffffffffffffffffffffffffffffffffff163373ffffffffffffffffffffffffffffffffffffffff161461078e576040517f08c379a000000000000000000000000000000000000000000000000000000000815260040161078590613c9c565b60405180910390fd5b6001600760008373ffffffffffffffffffffffffffffffffffffffff1673ffffffffffffffffffffffffffffffffffffffff16815260200190815260200160002060006101000a81548160ff0219169083151502179055506107f381620186a0612ceb565b50565b600860009054906101000a900473ffffffffffffffffffffffffffffffffffffffff1681565b60606003805461082b90613ceb565b80601f016020809104026020016040519081016040528092919081815260200182805461085790613ceb565b80156108a45780601f10610879576101008083540402835291602001916108a4565b820191906000526020600020905b81548152906001019060200180831161088757829003601f168201915b5050505050905090565b60006108c26108bb612e4b565b8484612e53565b6001905092915050565b60056020528060005260406000206000915090508060000160009054906101000a900473ffffffffffffffffffffffffffffffffffffffff169080600101805461091590613ceb565b80601f016020809104026020016040519081016040528092919081815260200182805461094190613ceb565b801561098e5780601f106109635761010080835404028352916020019161098e565b820191906000526020600020905b81548152906001019060200180831161097157829003601f168201915b5050505050908060020154908060030154908060040154908060050154908060060154908060070160009054906101000a900460ff16908060070160019054906101000a900460ff16908060070160029054906101000a900460ff16908060070160039054906101000a900460ff16908060070160049054906101000a900460ff1690508c565b6000600254905090565b600b60009054906101000a900460ff1681565b6000610a3f84848461301e565b6000600160008673ffffffffffffffffffffffffffffffffffffffff1673ffffffffffffffffffffffffffffffffffffffff1681526020019081526020016000206000610a8a612e4b565b73ffffffffffffffffffffffffffffffffffffffff1673ffffffffffffffffffffffffffffffffffffffff16815260200190815260200160002054905082811015610b0a576040517f08c379a0000000000000000000000000000000000000000000000000000000008152600401610b0190613d8f565b60405180910390fd5b610b1e85610b16612e4b565b858403612e53565b60019150509392505050565b60011515600560003373ffffffffffffffffffffffffffffffffffffffff1673ffffffffffffffffffffffffffffffffffffffff16815260200190815260200160002060070160039054906101000a900460ff16151514610bc0576040517f08c379a0000000000000000000000000000000000000000000000000000000008152600401610bb790613e21565b60405180910390fd5b60011515600560003373ffffffffffffffffffffffffffffffffffffffff1673ffffffffffffffffffffffffffffffffffffffff16815260200190815260200160002060070160009054906101000a900460ff16151514610c56576040517f08c379a0000000000000000000000000000000000000000000000000000000008152600401610c4d90613eb3565b60405180910390fd5b600560003373ffffffffffffffffffffffffffffffffffffffff1673ffffffffffffffffffffffffffffffffffffffff168152602001908152602001600020600301548114610cda576040517f08c379a0000000000000000000000000000000000000000000000000000000008152600401610cd190613f6b565b60405180910390fd5b60001515600560003373ffffffffffffffffffffffffffffffffffffffff1673ffffffffffffffffffffffffffffffffffffffff16815260200190815260200160002060070160019054906101000a900460ff16151514610d70576040517f08c379a0000000000000000000000000000000000000000000000000000000008152600401610d6790613ffd565b60405180910390fd5b6001600560003373ffffffffffffffffffffffffffffffffffffffff1673ffffffffffffffffffffffffffffffffffffffff16815260200190815260200160002060070160016101000a81548160ff021916908315150217905550600560003373ffffffffffffffffffffffffffffffffffffffff1673ffffffffffffffffffffffffffffffffffffffff16815260200190815260200160002060000160009054906101000a900473ffffffffffffffffffffffffffffffffffffffff16600860006101000a81548173ffffffffffffffffffffffffffffffffffffffff021916908373ffffffffffffffffffffffffffffffffffffffff160217905550610e9b33600860009054906101000a900473ffffffffffffffffffffffffffffffffffffffff168361301e565b7f8fd1ef265103fb6d4a1b92fbcac982ba273afb33a69cbe0d1ad42a7ff7540594423383604051610ece9392919061401d565b60405180910390a150565b60006002905090565b6000610f84610eef612e4b565b848460016000610efd612e4b565b73ffffffffffffffffffffffffffffffffffffffff1673ffffffffffffffffffffffffffffffffffffffff16815260200190815260200160002060008873ffffffffffffffffffffffffffffffffffffffff1673ffffffffffffffffffffffffffffffffffffffff16815260200190815260200160002054610f7f9190614083565b612e53565b6001905092915050565b60011515600560003373ffffffffffffffffffffffffffffffffffffffff1673ffffffffffffffffffffffffffffffffffffffff16815260200190815260200160002060070160039054906101000a900460ff16151514611024576040517f08c379a000000000000000000000000000000000000000000000000000000000815260040161101b90613e21565b60405180910390fd5b60011515600560003373ffffffffffffffffffffffffffffffffffffffff1673ffffffffffffffffffffffffffffffffffffffff16815260200190815260200160002060070160009054906101000a900460ff161515146110ba576040517f08c379a00000000000000000000000000000000000000000000000000000000081526004016110b190613eb3565b60405180910390fd5b62253d8c600560003373ffffffffffffffffffffffffffffffffffffffff1673ffffffffffffffffffffffffffffffffffffffff16815260200190815260200160002060060154141580156111505750600560003373ffffffffffffffffffffffffffffffffffffffff1673ffffffffffffffffffffffffffffffffffffffff1681526020019081526020016000206006015442115b156111b1576001600560003373ffffffffffffffffffffffffffffffffffffffff1673ffffffffffffffffffffffffffffffffffffffff16815260200190815260200160002060070160026101000a81548160ff0219169083151502179055505b6001600560003373ffffffffffffffffffffffffffffffffffffffff1673ffffffffffffffffffffffffffffffffffffffff16815260200190815260200160002060070160046101000a81548160ff021916908315150217905550565b60008060008373ffffffffffffffffffffffffffffffffffffffff1673ffffffffffffffffffffffffffffffffffffffff168152602001908152602001600020549050919050565b60606004805461126590613ceb565b80601f016020809104026020016040519081016040528092919081815260200182805461129190613ceb565b80156112de5780601f106112b3576101008083540402835291602001916112de565b820191906000526020600020905b8154815290600101906020018083116112c157829003601f168201915b5050505050905090565b60011515600760003373ffffffffffffffffffffffffffffffffffffffff1673ffffffffffffffffffffffffffffffffffffffff16815260200190815260200160002060009054906101000a900460ff1615151461137b576040517f08c379a00000000000000000000000000000000000000000000000000000000081526004016113729061414b565b60405180910390fd5b8181600a919061138c929190613302565b507fe8f81cc73f7cde4ff070dd71d02230800d4d9bf6b07c342ffc1e719500c5f8be4283836040516113c0939291906141a7565b60405180910390a15050565b600080600160006113db612e4b565b73ffffffffffffffffffffffffffffffffffffffff1673ffffffffffffffffffffffffffffffffffffffff16815260200190815260200160002060008573ffffffffffffffffffffffffffffffffffffffff1673ffffffffffffffffffffffffffffffffffffffff16815260200190815260200160002054905082811015611498576040517f08c379a000000000000000000000000000000000000000000000000000000000815260040161148f9061424b565b60405180910390fd5b6114ac6114a3612e4b565b85858403612e53565b600191505092915050565b60006114cb6114c4612e4b565b848461301e565b6001905092915050565b60011515600760003373ffffffffffffffffffffffffffffffffffffffff1673ffffffffffffffffffffffffffffffffffffffff16815260200190815260200160002060009054906101000a900460ff16151514611568576040517f08c379a000000000000000000000000000000000000000000000000000000000815260040161155f9061414b565b60405180910390fd5b61160b600a805461157890613ceb565b80601f01602080910402602001604051908101604052809291908181526020018280546115a490613ceb565b80156115f15780601f106115c6576101008083540402835291602001916115f1565b820191906000526020600020905b8154815290600101906020018083116115d457829003601f168201915b50505050506040518060200160405280600081525061329f565b1561164b576040517f08c379a0000000000000000000000000000000000000000000000000000000008152600401611642906142dd565b60405180910390fd5b85600073ffffffffffffffffffffffffffffffffffffffff168173ffffffffffffffffffffffffffffffffffffffff1614156116bc576040517f08c379a00000000000000000000000000000000000000000000000000000000081526004016116b390614349565b60405180910390fd5b60011515600760008973ffffffffffffffffffffffffffffffffffffffff1673ffffffffffffffffffffffffffffffffffffffff16815260200190815260200160002060009054906101000a900460ff1615151415611750576040517f08c379a0000000000000000000000000000000000000000000000000000000008152600401611747906143db565b60405180910390fd5b60001515600560008973ffffffffffffffffffffffffffffffffffffffff1673ffffffffffffffffffffffffffffffffffffffff16815260200190815260200160002060070160039054906101000a900460ff161515146117e6576040517f08c379a00000000000000000000000000000000000000000000000000000000081526004016117dd9061446d565b60405180910390fd5b60066040518061018001604052803373ffffffffffffffffffffffffffffffffffffffff16815260200188888080601f016020809104026020016040519081016040528093929190818152602001838380828437600081840152601f19601f82011690508083019250505050505050815260200186815260200185815260200184815260200162253d8c815260200162253d8c815260200160001515815260200160001515815260200160001515815260200160011515815260200160001515815250908060018154018082558091505060019003906000526020600020906008020160009091909190915060008201518160000160006101000a81548173ffffffffffffffffffffffffffffffffffffffff021916908373ffffffffffffffffffffffffffffffffffffffff1602179055506020820151816001019080519060200190611935929190613388565b5060408201518160020155606082015181600301556080820151816004015560a0820151816005015560c0820151816006015560e08201518160070160006101000a81548160ff0219169083151502179055506101008201518160070160016101000a81548160ff0219169083151502179055506101208201518160070160026101000a81548160ff0219169083151502179055506101408201518160070160036101000a81548160ff0219169083151502179055506101608201518160070160046101000a81548160ff02191690831515021790555050506006600b60009054906101000a900460ff1660ff1681548110611a3457611a3361448d565b5b9060005260206000209060080201600560008973ffffffffffffffffffffffffffffffffffffffff1673ffffffffffffffffffffffffffffffffffffffff1681526020019081526020016000206000820160009054906101000a900473ffffffffffffffffffffffffffffffffffffffff168160000160006101000a81548173ffffffffffffffffffffffffffffffffffffffff021916908373ffffffffffffffffffffffffffffffffffffffff1602179055506001820181600101908054611afc90613ceb565b611b0792919061340e565b5060028201548160020155600382015481600301556004820154816004015560058201548160050155600682015481600601556007820160009054906101000a900460ff168160070160006101000a81548160ff0219169083151502179055506007820160019054906101000a900460ff168160070160016101000a81548160ff0219169083151502179055506007820160029054906101000a900460ff168160070160026101000a81548160ff0219169083151502179055506007820160039054906101000a900460ff168160070160036101000a81548160ff0219169083151502179055506007820160049054906101000a900460ff168160070160046101000a81548160ff021916908315150217905550905050600b600081819054906101000a900460ff1680929190611c3d906144bc565b91906101000a81548160ff021916908360ff16021790555050611c6387620186a0612ceb565b7f6780871d22b18eb3aa88885def982f78af9919ccc28570d333649312f571411342888686604051611c9894939291906144e6565b60405180910390a150505050505050565b60011515600560003373ffffffffffffffffffffffffffffffffffffffff1673ffffffffffffffffffffffffffffffffffffffff16815260200190815260200160002060070160039054906101000a900460ff16151514611d3f576040517f08c379a0000000000000000000000000000000000000000000000000000000008152600401611d3690613e21565b60405180910390fd5b611de2600a8054611d4f90613ceb565b80601f0160208091040260200160405190810160405280929190818152602001828054611d7b90613ceb565b8015611dc85780601f10611d9d57610100808354040283529160200191611dc8565b820191906000526020600020905b815481529060010190602001808311611dab57829003601f168201915b50505050506040518060200160405280600081525061329f565b15611e22576040517f08c379a0000000000000000000000000000000000000000000000000000000008152600401611e19906142dd565b60405180910390fd5b60001515600560003373ffffffffffffffffffffffffffffffffffffffff1673ffffffffffffffffffffffffffffffffffffffff16815260200190815260200160002060070160009054906101000a900460ff16151514611eb8576040517f08c379a0000000000000000000000000000000000000000000000000000000008152600401611eaf9061459d565b60405180910390fd5b6001600560003373ffffffffffffffffffffffffffffffffffffffff1673ffffffffffffffffffffffffffffffffffffffff16815260200190815260200160002060070160006101000a81548160ff0219169083151502179055507f3dfbb6f692712dbbb152f7bc91aaf932ab90af18d2fa50bc97d3f72317ebe5764233604051611f449291906145bd565b60405180910390a1565b60068181548110611f5e57600080fd5b90600052602060002090600802016000915090508060000160009054906101000a900473ffffffffffffffffffffffffffffffffffffffff1690806001018054611fa790613ceb565b80601f0160208091040260200160405190810160405280929190818152602001828054611fd390613ceb565b80156120205780601f10611ff557610100808354040283529160200191612020565b820191906000526020600020905b81548152906001019060200180831161200357829003601f168201915b5050505050908060020154908060030154908060040154908060050154908060060154908060070160009054906101000a900460ff16908060070160019054906101000a900460ff16908060070160029054906101000a900460ff16908060070160039054906101000a900460ff16908060070160049054906101000a900460ff1690508c565b6060600a80546120b690613ceb565b80601f01602080910402602001604051908101604052809291908181526020018280546120e290613ceb565b801561212f5780601f106121045761010080835404028352916020019161212f565b820191906000526020600020905b81548152906001019060200180831161211257829003601f168201915b5050505050905090565b600960009054906101000a900473ffffffffffffffffffffffffffffffffffffffff1681565b600a805461216c90613ceb565b80601f016020809104026020016040519081016040528092919081815260200182805461219890613ceb565b80156121e55780601f106121ba576101008083540402835291602001916121e5565b820191906000526020600020905b8154815290600101906020018083116121c857829003601f168201915b505050505081565b60011515600560003373ffffffffffffffffffffffffffffffffffffffff1673ffffffffffffffffffffffffffffffffffffffff16815260200190815260200160002060070160039054906101000a900460ff16151514612283576040517f08c379a000000000000000000000000000000000000000000000000000000000815260040161227a90613e21565b60405180910390fd5b60011515600560003373ffffffffffffffffffffffffffffffffffffffff1673ffffffffffffffffffffffffffffffffffffffff16815260200190815260200160002060070160009054906101000a900460ff16151514612319576040517f08c379a000000000000000000000000000000000000000000000000000000000815260040161231090613eb3565b60405180910390fd5b60011515600560003373ffffffffffffffffffffffffffffffffffffffff1673ffffffffffffffffffffffffffffffffffffffff16815260200190815260200160002060070160049054906101000a900460ff161515146123af576040517f08c379a00000000000000000000000000000000000000000000000000000000081526004016123a690614658565b60405180910390fd5b600560003373ffffffffffffffffffffffffffffffffffffffff1673ffffffffffffffffffffffffffffffffffffffff168152602001908152602001600020600201548114612433576040517f08c379a000000000000000000000000000000000000000000000000000000000815260040161242a90614710565b60405180910390fd5b600560003373ffffffffffffffffffffffffffffffffffffffff1673ffffffffffffffffffffffffffffffffffffffff16815260200190815260200160002060000160009054906101000a900473ffffffffffffffffffffffffffffffffffffffff16600860006101000a81548173ffffffffffffffffffffffffffffffffffffffff021916908373ffffffffffffffffffffffffffffffffffffffff16021790555061250333600860009054906101000a900473ffffffffffffffffffffffffffffffffffffffff168361301e565b60011515600560003373ffffffffffffffffffffffffffffffffffffffff1673ffffffffffffffffffffffffffffffffffffffff16815260200190815260200160002060070160029054906101000a900460ff161515141561265657600560003373ffffffffffffffffffffffffffffffffffffffff1673ffffffffffffffffffffffffffffffffffffffff16815260200190815260200160002060040154600560003373ffffffffffffffffffffffffffffffffffffffff1673ffffffffffffffffffffffffffffffffffffffff16815260200190815260200160002060030160008282546125f39190614730565b925050819055506000600560003373ffffffffffffffffffffffffffffffffffffffff1673ffffffffffffffffffffffffffffffffffffffff16815260200190815260200160002060070160026101000a81548160ff0219169083151502179055505b62253d8c600560003373ffffffffffffffffffffffffffffffffffffffff1673ffffffffffffffffffffffffffffffffffffffff1681526020019081526020016000206005015414156126fd5762278d00426126b29190614083565b600560003373ffffffffffffffffffffffffffffffffffffffff1673ffffffffffffffffffffffffffffffffffffffff16815260200190815260200160002060060181905550612795565b62278d00600560003373ffffffffffffffffffffffffffffffffffffffff1673ffffffffffffffffffffffffffffffffffffffff1681526020019081526020016000206006015461274e9190614083565b600560003373ffffffffffffffffffffffffffffffffffffffff1673ffffffffffffffffffffffffffffffffffffffff168152602001908152602001600020600601819055505b42600560003373ffffffffffffffffffffffffffffffffffffffff1673ffffffffffffffffffffffffffffffffffffffff168152602001908152602001600020600501819055506000600560003373ffffffffffffffffffffffffffffffffffffffff1673ffffffffffffffffffffffffffffffffffffffff16815260200190815260200160002060070160046101000a81548160ff0219169083151502179055507fa26d9608d504149722f458f5886650037317f895ca6889331b59a879c2d8934b42333460405161286a9392919061401d565b60405180910390a150565b6000600160008473ffffffffffffffffffffffffffffffffffffffff1673ffffffffffffffffffffffffffffffffffffffff16815260200190815260200160002060008373ffffffffffffffffffffffffffffffffffffffff1673ffffffffffffffffffffffffffffffffffffffff16815260200190815260200160002054905092915050565b60076020528060005260406000206000915054906101000a900460ff1681565b61292461349b565b600560008373ffffffffffffffffffffffffffffffffffffffff1673ffffffffffffffffffffffffffffffffffffffff168152602001908152602001600020604051806101800160405290816000820160009054906101000a900473ffffffffffffffffffffffffffffffffffffffff1673ffffffffffffffffffffffffffffffffffffffff1673ffffffffffffffffffffffffffffffffffffffff1681526020016001820180546129d590613ceb565b80601f0160208091040260200160405190810160405280929190818152602001828054612a0190613ceb565b8015612a4e5780601f10612a2357610100808354040283529160200191612a4e565b820191906000526020600020905b815481529060010190602001808311612a3157829003601f168201915b5050505050815260200160028201548152602001600382015481526020016004820154815260200160058201548152602001600682015481526020016007820160009054906101000a900460ff161515151581526020016007820160019054906101000a900460ff161515151581526020016007820160029054906101000a900460ff161515151581526020016007820160039054906101000a900460ff161515151581526020016007820160049054906101000a900460ff1615151515815250509050919050565b60011515600760003373ffffffffffffffffffffffffffffffffffffffff1673ffffffffffffffffffffffffffffffffffffffff16815260200190815260200160002060009054906101000a900460ff16151514612baa576040517f08c379a0000000000000000000000000000000000000000000000000000000008152600401612ba19061414b565b60405180910390fd5b60011515600560008373ffffffffffffffffffffffffffffffffffffffff1673ffffffffffffffffffffffffffffffffffffffff16815260200190815260200160002060070160039054906101000a900460ff16151514612c40576040517f08c379a0000000000000000000000000000000000000000000000000000000008152600401612c37906147d6565b60405180910390fd5b612c8d3382600560008573ffffffffffffffffffffffffffffffffffffffff1673ffffffffffffffffffffffffffffffffffffffff1681526020019081526020016000206003015461301e565b6000600560008373ffffffffffffffffffffffffffffffffffffffff1673ffffffffffffffffffffffffffffffffffffffff16815260200190815260200160002060070160036101000a81548160ff02191690831515021790555050565b600073ffffffffffffffffffffffffffffffffffffffff168273ffffffffffffffffffffffffffffffffffffffff161415612d5b576040517f08c379a0000000000000000000000000000000000000000000000000000000008152600401612d5290614842565b60405180910390fd5b612d67600083836132f8565b8060026000828254612d799190614083565b92505081905550806000808473ffffffffffffffffffffffffffffffffffffffff1673ffffffffffffffffffffffffffffffffffffffff1681526020019081526020016000206000828254612dce9190614083565b925050819055508173ffffffffffffffffffffffffffffffffffffffff16600073ffffffffffffffffffffffffffffffffffffffff167fddf252ad1be2c89b69c2b068fc378daa952ba7f163c4a11628f55a4df523b3ef83604051612e33919061382f565b60405180910390a3612e47600083836132fd565b5050565b600033905090565b600073ffffffffffffffffffffffffffffffffffffffff168373ffffffffffffffffffffffffffffffffffffffff161415612ec3576040517f08c379a0000000000000000000000000000000000000000000000000000000008152600401612eba906148d4565b60405180910390fd5b600073ffffffffffffffffffffffffffffffffffffffff168273ffffffffffffffffffffffffffffffffffffffff161415612f33576040517f08c379a0000000000000000000000000000000000000000000000000000000008152600401612f2a90614966565b60405180910390fd5b80600160008573ffffffffffffffffffffffffffffffffffffffff1673ffffffffffffffffffffffffffffffffffffffff16815260200190815260200160002060008473ffffffffffffffffffffffffffffffffffffffff1673ffffffffffffffffffffffffffffffffffffffff168152602001908152602001600020819055508173ffffffffffffffffffffffffffffffffffffffff168373ffffffffffffffffffffffffffffffffffffffff167f8c5be1e5ebec7d5bd14f71427d1e84f3dd0314c0f7b2291e5b200ac8c7c3b92583604051613011919061382f565b60405180910390a3505050565b600073ffffffffffffffffffffffffffffffffffffffff168373ffffffffffffffffffffffffffffffffffffffff16141561308e576040517f08c379a0000000000000000000000000000000000000000000000000000000008152600401613085906149f8565b60405180910390fd5b600073ffffffffffffffffffffffffffffffffffffffff168273ffffffffffffffffffffffffffffffffffffffff1614156130fe576040517f08c379a00000000000000000000000000000000000000000000000000000000081526004016130f590614a8a565b60405180910390fd5b6131098383836132f8565b60008060008573ffffffffffffffffffffffffffffffffffffffff1673ffffffffffffffffffffffffffffffffffffffff1681526020019081526020016000205490508181101561318f576040517f08c379a000000000000000000000000000000000000000000000000000000000815260040161318690614b1c565b60405180910390fd5b8181036000808673ffffffffffffffffffffffffffffffffffffffff1673ffffffffffffffffffffffffffffffffffffffff16815260200190815260200160002081905550816000808573ffffffffffffffffffffffffffffffffffffffff1673ffffffffffffffffffffffffffffffffffffffff16815260200190815260200160002060008282546132229190614083565b925050819055508273ffffffffffffffffffffffffffffffffffffffff168473ffffffffffffffffffffffffffffffffffffffff167fddf252ad1be2c89b69c2b068fc378daa952ba7f163c4a11628f55a4df523b3ef84604051613286919061382f565b60405180910390a36132998484846132fd565b50505050565b6000816040516020016132b29190614b78565b60405160208183030381529060405280519060200120836040516020016132d99190614b78565b6040516020818303038152906040528051906020012014905092915050565b505050565b505050565b82805461330e90613ceb565b90600052602060002090601f0160209004810192826133305760008555613377565b82601f1061334957803560ff1916838001178555613377565b82800160010185558215613377579182015b8281111561337657823582559160200191906001019061335b565b5b509050613384919061351c565b5090565b82805461339490613ceb565b90600052602060002090601f0160209004810192826133b657600085556133fd565b82601f106133cf57805160ff19168380011785556133fd565b828001600101855582156133fd579182015b828111156133fc5782518255916020019190600101906133e1565b5b50905061340a919061351c565b5090565b82805461341a90613ceb565b90600052602060002090601f01602090048101928261343c576000855561348a565b82601f1061344d578054855561348a565b8280016001018555821561348a57600052602060002091601f016020900482015b8281111561348957825482559160010191906001019061346e565b5b509050613497919061351c565b5090565b604051806101800160405280600073ffffffffffffffffffffffffffffffffffffffff1681526020016060815260200160008152602001600081526020016000815260200160008152602001600081526020016000151581526020016000151581526020016000151581526020016000151581526020016000151581525090565b5b8082111561353557600081600090555060010161351d565b5090565b600080fd5b600080fd5b600073ffffffffffffffffffffffffffffffffffffffff82169050919050565b600061356e82613543565b9050919050565b61357e81613563565b811461358957600080fd5b50565b60008135905061359b81613575565b92915050565b6000602082840312156135b7576135b6613539565b5b60006135c58482850161358c565b91505092915050565b6135d781613563565b82525050565b60006020820190506135f260008301846135ce565b92915050565b600081519050919050565b600082825260208201905092915050565b60005b83811015613632578082015181840152602081019050613617565b83811115613641576000848401525b50505050565b6000601f19601f8301169050919050565b6000613663826135f8565b61366d8185613603565b935061367d818560208601613614565b61368681613647565b840191505092915050565b600060208201905081810360008301526136ab8184613658565b905092915050565b6000819050919050565b6136c6816136b3565b81146136d157600080fd5b50565b6000813590506136e3816136bd565b92915050565b60008060408385031215613700576136ff613539565b5b600061370e8582860161358c565b925050602061371f858286016136d4565b9150509250929050565b60008115159050919050565b61373e81613729565b82525050565b60006020820190506137596000830184613735565b92915050565b613768816136b3565b82525050565b600061018082019050613784600083018f6135ce565b8181036020830152613796818e613658565b90506137a5604083018d61375f565b6137b2606083018c61375f565b6137bf608083018b61375f565b6137cc60a083018a61375f565b6137d960c083018961375f565b6137e660e0830188613735565b6137f4610100830187613735565b613802610120830186613735565b613810610140830185613735565b61381e610160830184613735565b9d9c50505050505050505050505050565b6000602082019050613844600083018461375f565b92915050565b600060ff82169050919050565b6138608161384a565b82525050565b600060208201905061387b6000830184613857565b92915050565b60008060006060848603121561389a57613899613539565b5b60006138a88682870161358c565b93505060206138b98682870161358c565b92505060406138ca868287016136d4565b9150509250925092565b6000602082840312156138ea576138e9613539565b5b60006138f8848285016136d4565b91505092915050565b600080fd5b600080fd5b600080fd5b60008083601f84011261392657613925613901565b5b8235905067ffffffffffffffff81111561394357613942613906565b5b60208301915083600182028301111561395f5761395e61390b565b5b9250929050565b6000806020838503121561397d5761397c613539565b5b600083013567ffffffffffffffff81111561399b5761399a61353e565b5b6139a785828601613910565b92509250509250929050565b60008060008060008060a087890312156139d0576139cf613539565b5b60006139de89828a0161358c565b965050602087013567ffffffffffffffff8111156139ff576139fe61353e565b5b613a0b89828a01613910565b95509550506040613a1e89828a016136d4565b9350506060613a2f89828a016136d4565b9250506080613a4089828a016136d4565b9150509295509295509295565b60008060408385031215613a6457613a63613539565b5b6000613a728582860161358c565b9250506020613a838582860161358c565b9150509250929050565b613a9681613563565b82525050565b600082825260208201905092915050565b6000613ab8826135f8565b613ac28185613a9c565b9350613ad2818560208601613614565b613adb81613647565b840191505092915050565b613aef816136b3565b82525050565b613afe81613729565b82525050565b600061018083016000830151613b1d6000860182613a8d565b5060208301518482036020860152613b358282613aad565b9150506040830151613b4a6040860182613ae6565b506060830151613b5d6060860182613ae6565b506080830151613b706080860182613ae6565b5060a0830151613b8360a0860182613ae6565b5060c0830151613b9660c0860182613ae6565b5060e0830151613ba960e0860182613af5565b50610100830151613bbe610100860182613af5565b50610120830151613bd3610120860182613af5565b50610140830151613be8610140860182613af5565b50610160830151613bfd610160860182613af5565b508091505092915050565b60006020820190508181036000830152613c228184613b04565b905092915050565b7f4f6e6c792061646d696e2063616e2063616c6c20746869732066756e6374696f60008201527f6e2e000000000000000000000000000000000000000000000000000000000000602082015250565b6000613c86602283613603565b9150613c9182613c2a565b604082019050919050565b60006020820190508181036000830152613cb581613c79565b9050919050565b7f4e487b7100000000000000000000000000000000000000000000000000000000600052602260045260246000fd5b60006002820490506001821680613d0357607f821691505b60208210811415613d1757613d16613cbc565b5b50919050565b7f45524332303a207472616e7366657220616d6f756e742065786365656473206160008201527f6c6c6f77616e6365000000000000000000000000000000000000000000000000602082015250565b6000613d79602883613603565b9150613d8482613d1d565b604082019050919050565b60006020820190508181036000830152613da881613d6c565b9050919050565b7f4f6e6c7920612074656e616e742063616e20696e766f6b65207468697320667560008201527f6e6374696f6e616c697479000000000000000000000000000000000000000000602082015250565b6000613e0b602b83613603565b9150613e1682613daf565b604082019050919050565b60006020820190508181036000830152613e3a81613dfe565b9050919050565b7f54656e616e74206d757374207369676e2074686520636f6e747261637420626560008201527f666f726520696e766f6b696e6720746869732066756e6374696f6e616c697479602082015250565b6000613e9d604083613603565b9150613ea882613e41565b604082019050919050565b60006020820190508181036000830152613ecc81613e90565b9050919050565b7f416d6f756e74206f662070726f7669646564206465706f73697420646f65732060008201527f6e6f74206d617463682074686520616d6f756e74206f6620726571756972656460208201527f206465706f736974000000000000000000000000000000000000000000000000604082015250565b6000613f55604883613603565b9150613f6082613ed3565b606082019050919050565b60006020820190508181036000830152613f8481613f48565b9050919050565b7f5468652074656e616e742068617320616c72656164792070616964207468652060008201527f6465706f73697400000000000000000000000000000000000000000000000000602082015250565b6000613fe7602783613603565b9150613ff282613f8b565b604082019050919050565b6000602082019050818103600083015261401681613fda565b9050919050565b6000606082019050614032600083018661375f565b61403f60208301856135ce565b61404c604083018461375f565b949350505050565b7f4e487b7100000000000000000000000000000000000000000000000000000000600052601160045260246000fd5b600061408e826136b3565b9150614099836136b3565b9250827fffffffffffffffffffffffffffffffffffffffffffffffffffffffffffffffff038211156140ce576140cd614054565b5b828201905092915050565b7f4f6e6c7920746865206c616e646c6f72642063616e20696e766f6b652074686960008201527f732066756e6374696f6e616c6974790000000000000000000000000000000000602082015250565b6000614135602f83613603565b9150614140826140d9565b604082019050919050565b6000602082019050818103600083015261416481614128565b9050919050565b82818337600083830152505050565b60006141868385613603565b935061419383858461416b565b61419c83613647565b840190509392505050565b60006040820190506141bc600083018661375f565b81810360208301526141cf81848661417a565b9050949350505050565b7f45524332303a2064656372656173656420616c6c6f77616e63652062656c6f7760008201527f207a65726f000000000000000000000000000000000000000000000000000000602082015250565b6000614235602583613603565b9150614240826141d9565b604082019050919050565b6000602082019050818103600083015261426481614228565b9050919050565b7f546865207772697474656e20636f6e747261637420686173206e6f742062656560008201527f6e2070726f706f73656420796574000000000000000000000000000000000000602082015250565b60006142c7602e83613603565b91506142d28261426b565b604082019050919050565b600060208201905081810360008301526142f6816142ba565b9050919050565b7f3074682061646472657373206973206e6f7420616c6c6f776564210000000000600082015250565b6000614333601b83613603565b915061433e826142fd565b602082019050919050565b6000602082019050818103600083015261436281614326565b9050919050565b7f4c616e646c6f7264206973206e6f7420616c6c6f77656420746f20626520612060008201527f74656e616e74206174207468652073616d652074696d652e0000000000000000602082015250565b60006143c5603883613603565b91506143d082614369565b604082019050919050565b600060208201905081810360008301526143f4816143b8565b9050919050565b7f4475706c69636174652074656e616e747320617265206e6f7420616c6c6f776560008201527f642e000000000000000000000000000000000000000000000000000000000000602082015250565b6000614457602283613603565b9150614462826143fb565b604082019050919050565b600060208201905081810360008301526144868161444a565b9050919050565b7f4e487b7100000000000000000000000000000000000000000000000000000000600052603260045260246000fd5b60006144c78261384a565b915060ff8214156144db576144da614054565b5b600182019050919050565b60006080820190506144fb600083018761375f565b61450860208301866135ce565b614515604083018561375f565b614522606083018461375f565b95945050505050565b7f5468652074656e616e742068617320616c7265616479207369676e656420746860008201527f6520636f6e747261637400000000000000000000000000000000000000000000602082015250565b6000614587602a83613603565b91506145928261452b565b604082019050919050565b600060208201905081810360008301526145b68161457a565b9050919050565b60006040820190506145d2600083018561375f565b6145df60208301846135ce565b9392505050565b7f55736520436865636b4c6174655061796d656e742066756e6374696f6e20746f60008201527f2076657269667920697473206e6f742061206c617465207061796d656e740000602082015250565b6000614642603e83613603565b915061464d826145e6565b604082019050919050565b6000602082019050818103600083015261467181614635565b9050919050565b7f416d6f756e74206f662070726f76696465642072656e7420646f6573206e6f7460008201527f206d617463682074686520616d6f756e74206f6620726571756972656420526560208201527f6e74000000000000000000000000000000000000000000000000000000000000604082015250565b60006146fa604283613603565b915061470582614678565b606082019050919050565b60006020820190508181036000830152614729816146ed565b9050919050565b600061473b826136b3565b9150614746836136b3565b92508282101561475957614758614054565b5b828203905092915050565b7f54656e616e74206d757374206265207265676973746572656420746f206d616b60008201527f652066696e616c20736574746c656d656e740000000000000000000000000000602082015250565b60006147c0603283613603565b91506147cb82614764565b604082019050919050565b600060208201905081810360008301526147ef816147b3565b9050919050565b7f45524332303a206d696e7420746f20746865207a65726f206164647265737300600082015250565b600061482c601f83613603565b9150614837826147f6565b602082019050919050565b6000602082019050818103600083015261485b8161481f565b9050919050565b7f45524332303a20617070726f76652066726f6d20746865207a65726f2061646460008201527f7265737300000000000000000000000000000000000000000000000000000000602082015250565b60006148be602483613603565b91506148c982614862565b604082019050919050565b600060208201905081810360008301526148ed816148b1565b9050919050565b7f45524332303a20617070726f766520746f20746865207a65726f20616464726560008201527f7373000000000000000000000000000000000000000000000000000000000000602082015250565b6000614950602283613603565b915061495b826148f4565b604082019050919050565b6000602082019050818103600083015261497f81614943565b9050919050565b7f45524332303a207472616e736665722066726f6d20746865207a65726f20616460008201527f6472657373000000000000000000000000000000000000000000000000000000602082015250565b60006149e2602583613603565b91506149ed82614986565b604082019050919050565b60006020820190508181036000830152614a11816149d5565b9050919050565b7f45524332303a207472616e7366657220746f20746865207a65726f206164647260008201527f6573730000000000000000000000000000000000000000000000000000000000602082015250565b6000614a74602383613603565b9150614a7f82614a18565b604082019050919050565b60006020820190508181036000830152614aa381614a67565b9050919050565b7f45524332303a207472616e7366657220616d6f756e742065786365656473206260008201527f616c616e63650000000000000000000000000000000000000000000000000000602082015250565b6000614b06602683613603565b9150614b1182614aaa565b604082019050919050565b60006020820190508181036000830152614b3581614af9565b9050919050565b600081905092915050565b6000614b52826135f8565b614b5c8185614b3c565b9350614b6c818560208601613614565b80840191505092915050565b6000614b848284614b47565b91508190509291505056fea26469706673582212201c28caf4d92544945bb356cfc0a3e0a4c1a7f5c72f2ab30635431640b6eace2064736f6c63430008090033",
  "immutableReferences": {},
  "source": "// SPDX-License-Identifier: GPL-3.0\n\npragma solidity ^0.8.9;\n\nimport \"@openzeppelin/contracts/token/ERC20/ERC20.sol\";\nimport \"@openzeppelin/contracts/access/Ownable.sol\";\n\n\ncontract SmartLeaseContract is ERC20 {\n\n    event WrittenContractProposed(uint timestamp, string ipfsHash);\n    event TenantAssigned(uint timestamp, address tenantAddress, uint rentAmount, uint depositAmount);\n    event TenantSigned(uint timestamp, address tenantAddress);\n    event DepositPayed(uint timestamp, address tenantAddress, uint amount);\n    event RentPayed(uint timestamp, address tenantAddress, uint amount);\n\n    struct Tenant_Details {\n        address owner;\n        string house_address;\n        uint rentAmount;\n        uint depositAmount;\n        uint lateRentFee;\n        uint lastBillPaymentDate;\n        uint nextBillingDate;\n        bool hasSignedLease;\n        bool hasPaidDeposit;\n        bool latePayment;\n        bool registered;\n        bool latePaymentChecked;\n    }\n    mapping(address => Tenant_Details) public addressToTenant;\n        Tenant_Details[] public tenants;\n\tmapping (address => bool) public Landlords;\n    address public landlordAddress;\n    address public deployer;\n    string public LeaseAgreementIpfsHash;\n    uint8 public tenantOccupancy = 0;\n    \n\tconstructor() ERC20(\"RentIT\", \"RIT\") {\n        deployer = msg.sender;\n        _mint(msg.sender, 10000000 * 10 ** decimals());\n    }\n    function decimals() public view virtual override returns (uint8) {\n        return 2;\n    }\n    modifier onlyAdmin() {\n        require(msg.sender == deployer, \"Only admin can call this function.\");\n        _;\n    }\n    modifier onlyTenant() {\n        require(addressToTenant[msg.sender].registered == true, \"Only a tenant can invoke this functionality\");\n        _;\n    }\n    modifier onlyLandlord() {\n        require(Landlords[msg.sender] == true, \"Only the landlord can invoke this functionality\");\n        _;\n    }\n    modifier isContractProposed() {\n        require(!(isSameString(LeaseAgreementIpfsHash, \"\")), \"The written contract has not been proposed yet\");\n        _;\n    }\n    // Checks whether tenant is making late rent payment or not\n    modifier ChLatePayment() {\n        require(addressToTenant[msg.sender].latePaymentChecked == true,\"Use CheckLatePayment function to verify its not a late payment\");\n        _;\n    }\n    modifier hasSigned() {\n        require(addressToTenant[msg.sender].hasSignedLease == true, \"Tenant must sign the contract before invoking this functionality\");\n        _;\n    }\n    \n     modifier notZeroAddres(address addr){\n        require(addr != address(0), \"0th address is not allowed!\");\n        _;\n    }\n    //Adding new landlord in RentIT\n\tfunction addLandlord(address _landlord) public onlyAdmin { \n\t    Landlords[_landlord] = true;\n        _mint(_landlord, 100000);\n\t}\n\t\n\t//Proposing Lease Agreement using IPFS hash\n    function proposeLeaseAgreement(string calldata _LeaseAgreementIpfsHash) external onlyLandlord {\n        LeaseAgreementIpfsHash = _LeaseAgreementIpfsHash;\n        emit WrittenContractProposed(block.timestamp, _LeaseAgreementIpfsHash);\n    }\n    \n    function displayhashvalue() public view returns (string memory){\n        return LeaseAgreementIpfsHash;\n    }\n\n    function displayHouseDetails(address tenant_addr) public view returns (Tenant_Details memory){\n        return addressToTenant[tenant_addr];\n    }\n\n\n    //Registering tenant in RentIT along with house address and rent details\n    function registerTenant(address _tenantAddress, string calldata house_address, uint _rentAmount, uint _depositAmount, uint lateRentFee) \n    external onlyLandlord isContractProposed notZeroAddres(_tenantAddress){\n        require(Landlords[_tenantAddress] != true, \"Landlord is not allowed to be a tenant at the same time.\");\n        require(addressToTenant[_tenantAddress].registered == false, \"Duplicate tenants are not allowed.\");\n        //setting the initial dates to 1970/01/01 (initialization)\n        tenants.push(Tenant_Details(msg.sender, house_address, _rentAmount, _depositAmount, lateRentFee,2440588, 2440588,false, false, false, true,false));\n        addressToTenant[_tenantAddress] = tenants[tenantOccupancy];\n        tenantOccupancy++; \n        _mint(_tenantAddress, 100000);\n        emit TenantAssigned(block.timestamp, _tenantAddress, _rentAmount, _depositAmount);\n    }\n    \n    //Tenant signing the lease contract \n    function signContract() external onlyTenant isContractProposed\n     {\n        require(addressToTenant[msg.sender].hasSignedLease == false, \"The tenant has already signed the contract\");\n        addressToTenant[msg.sender].hasSignedLease = true;\n        emit TenantSigned(block.timestamp, msg.sender);\n    }\n    \n    //Tenant pays the deposit amount corresponding to the rental house\n    function payDeposit(uint _Amount) external payable onlyTenant hasSigned {\n        require(_Amount == addressToTenant[msg.sender].depositAmount,\"Amount of provided deposit does not match the amount of required deposit\");\n        require(addressToTenant[msg.sender].hasPaidDeposit == false, \"The tenant has already paid the deposit\");\n\n        addressToTenant[msg.sender].hasPaidDeposit = true;\n        landlordAddress = addressToTenant[msg.sender].owner;\n        _transfer(msg.sender,landlordAddress,_Amount);\n        \n        emit DepositPayed(block.timestamp, msg.sender, _Amount);\n    }\n    \n    //Tenant pays montly rent\n    function payRent( uint _Amount) external payable onlyTenant hasSigned ChLatePayment{\n        \n        require(_Amount == addressToTenant[msg.sender].rentAmount,\"Amount of provided rent does not match the amount of required Rent\");\n        \n        landlordAddress = addressToTenant[msg.sender].owner;\n        _transfer(msg.sender,landlordAddress,_Amount);\n        \n        //If tenant is making rent payement corresponding late fee will be deducted from his deposit amount\n        if (addressToTenant[msg.sender].latePayment == true)\n        {\n            //_transfer(msg.sender,landlordAddress,addressToTenant[msg.sender].lateRentFee);\n            addressToTenant[msg.sender].depositAmount -= addressToTenant[msg.sender].lateRentFee; //Deduct the late payement fee from deposit amount\n            addressToTenant[msg.sender].latePayment = false; //reset the late payment flag\n        }\n        \n        //For first rent payment set the next billing date to 30 days later to current date\n        if (addressToTenant[msg.sender].lastBillPaymentDate == 2440588)\n        {\n            addressToTenant[msg.sender].nextBillingDate = block.timestamp + 30 days;\n        }\n        else //for usual montly rent payments set the nextBillingDate to 30 days later of current NextBillingDate\n        {\n            addressToTenant[msg.sender].nextBillingDate = addressToTenant[msg.sender].nextBillingDate + 30 days;\n        }\n        \n        addressToTenant[msg.sender].lastBillPaymentDate = block.timestamp; //Set lastBillPayment date to current\n        addressToTenant[msg.sender].latePaymentChecked = false;//Reset latePaymentChecked flag\n        \n        emit RentPayed(block.timestamp, msg.sender, msg.value);\n    }\n    \n    //Check if tenant is making late rent payment\n    function CheckLatePayment( ) external onlyTenant hasSigned \n    {\n     //check is not for first rent payment and nextbilling date of the tenant is passed i.e., its a late rent latePayment\n     //latePayement flag is set to true in this case\n     if (addressToTenant[msg.sender].nextBillingDate!= 2440588 && block.timestamp>addressToTenant[msg.sender].nextBillingDate)\n     {\n        addressToTenant[msg.sender].latePayment = true;\n     }\n     addressToTenant[msg.sender].latePaymentChecked = true;\n    }\n    \n    //Owner can settle the tenant by paying the deposit amount back and unregistering the tenant\n    function settleTenant (address _tenantAddress) external onlyLandlord \n    {\n        require(addressToTenant[_tenantAddress].registered == true,'Tenant must be registered to make final settlement');\n        _transfer(msg.sender,_tenantAddress,addressToTenant[_tenantAddress].depositAmount);\n        addressToTenant[_tenantAddress].registered = false; \n    }\n    \n    function isSameString(string memory string1, string memory string2) private pure returns (bool) \n    {\n        return keccak256(abi.encodePacked(string1)) == keccak256(abi.encodePacked(string2));\n    }\n}\n",
  "sourcePath": "/Users/kiranmainamburu/Documents/1st sem/Blockchain/SmartLease - Dapp/SmartLease-Contract/contracts/SmartLeaseContract.sol",
  "compiler": {
    "name": "solc",
    "version": "0.8.9+commit.e5eed63a.Emscripten.clang"
  },
  "schemaVersion": "3.4.3",
  "updatedAt": "2021-12-07T16:22:54.320Z",
  "networkType": "ethereum",
  "devdoc": {
    "kind": "dev",
    "methods": {
      "allowance(address,address)": {
        "details": "See {IERC20-allowance}."
      },
      "approve(address,uint256)": {
        "details": "See {IERC20-approve}. Requirements: - `spender` cannot be the zero address."
      },
      "balanceOf(address)": {
        "details": "See {IERC20-balanceOf}."
      },
      "decimals()": {
        "details": "Returns the number of decimals used to get its user representation. For example, if `decimals` equals `2`, a balance of `505` tokens should be displayed to a user as `5.05` (`505 / 10 ** 2`). Tokens usually opt for a value of 18, imitating the relationship between Ether and Wei. This is the value {ERC20} uses, unless this function is overridden; NOTE: This information is only used for _display_ purposes: it in no way affects any of the arithmetic of the contract, including {IERC20-balanceOf} and {IERC20-transfer}."
      },
      "decreaseAllowance(address,uint256)": {
        "details": "Atomically decreases the allowance granted to `spender` by the caller. This is an alternative to {approve} that can be used as a mitigation for problems described in {IERC20-approve}. Emits an {Approval} event indicating the updated allowance. Requirements: - `spender` cannot be the zero address. - `spender` must have allowance for the caller of at least `subtractedValue`."
      },
      "increaseAllowance(address,uint256)": {
        "details": "Atomically increases the allowance granted to `spender` by the caller. This is an alternative to {approve} that can be used as a mitigation for problems described in {IERC20-approve}. Emits an {Approval} event indicating the updated allowance. Requirements: - `spender` cannot be the zero address."
      },
      "name()": {
        "details": "Returns the name of the token."
      },
      "symbol()": {
        "details": "Returns the symbol of the token, usually a shorter version of the name."
      },
      "totalSupply()": {
        "details": "See {IERC20-totalSupply}."
      },
      "transfer(address,uint256)": {
        "details": "See {IERC20-transfer}. Requirements: - `recipient` cannot be the zero address. - the caller must have a balance of at least `amount`."
      },
      "transferFrom(address,address,uint256)": {
        "details": "See {IERC20-transferFrom}. Emits an {Approval} event indicating the updated allowance. This is not required by the EIP. See the note at the beginning of {ERC20}. Requirements: - `sender` and `recipient` cannot be the zero address. - `sender` must have a balance of at least `amount`. - the caller must have allowance for ``sender``'s tokens of at least `amount`."
      }
    },
    "version": 1
  },
  "userdoc": {
    "kind": "user",
    "methods": {},
    "version": 1
  }
}